:020000040000FA
:10000000582400200D030000150300001703000012
:10001000190300001B0300001D0300000000000086
:1000200000000000000000000000000001200000AF
:100030002103000000000000911F0000B520000017
:1000400027030000290300002B0300002D030000FC
:100050002F030000310300003303000035030000CC
:1000600037030000390300003B0300003D0300009C
:100070003F0300004103000043030000450300006C
:1000800047030000490300004B0300004D0300003C
:100090004F0300005103000053030000550300000C
:1000A00057030000590300005B0300005D030000DC
:1000B0005F030000610300006303000065030000AC
:1000C00067030000690300006B0300006D0300007C
:1000D0006F0300007103000073030000750300004C
:1000E0007703000079030000000000007B0300009C
:1000F0007D0300007F0300008103000083030000F4
:100100008503000087030000890300008B030000C3
:1001100000000000000000008D0300008F030000BD
:100120009103000093030000950300009703000073
:10013000990300009B0300009D0300009F03000043
:1001400000000000000000000000000000000000AF
:10015000A1030000A3030000A5030000A703000003
:10016000000000000000000000000000000000008F
:10017000000000000000000000000000000000007F
:10018000000000000000000000000000000000006F
:10019000000000000000000000000000000000005F
:1001A000000000000000000000000000000000004F
:1001B000A9030000AB030000AD030000AF03000083
:1001C000B1030000B3030000B5030000B703000053
:1001D000B9030000BB030000BD030000BF03000023
:1001E000C1030000C3030000C503000000000000BD
:1001F00000000000C7030000C9030000CB0300009B
:10020000CD030000CF03000000000000000000004C
:10021000D1030000D3030000D5030000D703000082
:10022000D9030000DB030000DD030000DF03000052
:10023000E1030000E3030000E5030000E703000022
:10024000E9030000EB030000ED030000EF030000F2
:10025000F1030000F3030000F5030000F7030000C2
:10026000F9030000FB030000FD03000000F002F8AA
:1002700000F03CF80AA090E8000C82448344AAF104
:100280000107DA4501D100F031F8AFF2090EBAE802
:100290000F0013F0010F18BFFB1A43F001031847BA
:1002A000C0630000E0630000103A24BF78C878C142
:1002B000FAD8520724BF30C830C144BF04680C606C
:1002C000704700000023002400250026103A28BFB4
:1002D00078C1FBD8520728BF30C148BF0B607047B8
:1002E0001FB506F01AF91FBD10B510BD00F063F977
:1002F0001146FFF7F5FF02F0A1F900F081F903B410
:10030000FFF7F2FF03BC00F089F900003F48804787
:100310003F480047FEE7FEE7FEE7FEE7FEE7FEE7B1
:10032000FEE7FEE7FEE7FEE7FEE7FEE7FEE7FEE7A5
:10033000FEE7FEE7FEE7FEE7FEE7FEE7FEE7FEE795
:10034000FEE7FEE7FEE7FEE7FEE7FEE7FEE7FEE785
:10035000FEE7FEE7FEE7FEE7FEE7FEE7FEE7FEE775
:10036000FEE7FEE7FEE7FEE7FEE7FEE7FEE7FEE765
:10037000FEE7FEE7FEE7FEE7FEE7FEE7FEE7FEE755
:10038000FEE7FEE7FEE7FEE7FEE7FEE7FEE7FEE745
:10039000FEE7FEE7FEE7FEE7FEE7FEE7FEE7FEE735
:1003A000FEE7FEE7FEE7FEE7FEE7FEE7FEE7FEE725
:1003B000FEE7FEE7FEE7FEE7FEE7FEE7FEE7FEE715
:1003C000FEE7FEE7FEE7FEE7FEE7FEE7FEE7FEE705
:1003D000FEE7FEE7FEE7FEE7FEE7FEE7FEE7FEE7F5
:1003E000FEE7FEE7FEE7FEE7FEE7FEE7FEE7FEE7E5
:1003F000FEE7FEE7FEE7FEE7FEE7FEE7FEE70000BA
:1004000004480549034A054B70470000F1200000ED
:100410006D0200005822002058240020582200209D
:10042000032A40F2308010F0030C00F0158011F820
:10043000013BBCF1020F624498BF11F801CB00F8F8
:10044000013B38BF11F8013BA2F1040298BF00F84C
:1004500001CB38BF00F8013B11F0030300F05280DC
:10046000083AC0F0088051F8043B083A51F804CB30
:10047000A0E80810F5E7121D5CBF51F8043B40F8F6
:10048000043BAFF30080D20724BF11F8013B11F801
:1004900001CB48BF11F8012B24BF00F8013B00F845
:1004A00001CB48BF00F8012B704702F0FF0343EA7D
:1004B000032242EA024200F059B84FF00002042938
:1004C000C0F0128010F0030C00F05080CCF1040C4E
:1004D000BCF1020F18BF00F8012BA8BF20F8022BB7
:1004E000A1EB0C0100F042B85FEAC17C24BF00F828
:1004F000012B00F8012B48BF00F8012B7047704713
:100500007047704710B5203AC0F00B80B1E8185022
:10051000A0E81850B1E81850A0E81850203ABFF4ED
:10052000F5AF5FEA027C24BFB1E81850A0E818508C
:1005300044BF18C918C0BDE810405FEA827C24BFE0
:1005400051F8043B40F8043B08BF7047D20728BF6E
:1005500031F8023B48BF11F8012B28BF20F8023BBD
:1005600048BF00F8012B70474FF0000200B513465A
:1005700094469646203922BFA0E80C50A0E80C50C3
:10058000B1F12001BFF4F7AF090728BFA0E80C5074
:1005900048BF0CC05DF804EB890028BF40F8042B6D
:1005A00008BF704748BF20F8022B11F0804F18BFDA
:1005B00000F8012B7047754600F02CF8AE46050098
:1005C0006946534620F00700854618B020B5FFF76E
:1005D00017FFBDE820404FF000064FF000074FF036
:1005E00000084FF0000BAC46ACE8C009ACE8C0090D
:1005F000ACE8C009ACE8C00921F007018D4670479E
:1006000010B50446AFF300802046BDE81040FFF768
:1006100076BE0000004870471000002001491820F5
:10062000ABBEFEE7260002007047000080B584B034
:100630008DF80F008DF80E108DF80D208DF80C3010
:100640009DF80E000146029120B1FFE702980128B3
:1006500009D011E04EF23861C4F20F01086840F091
:100660000100086009E04EF23861C4F20F01086829
:1006700040F00200086000E0FFE700F0D9FB9DF8C1
:100680000D00014601910B2800F29B810199DFE8E2
:1006900011F00C002D004E006F009000B100D20050
:1006A000F300140135015601770144F22041C4F2F0
:1006B0000201086840F00800086044F21C51C4F2CE
:1006C0000201086820F00800086044F22851C4F2D2
:1006D0000201086840F0080008609DF80F009DF8CE
:1006E0000C109DF80D2000F003FB6BE144F220415B
:1006F000C4F20201086840F00400086044F21C5192
:10070000C4F20201086820F00400086044F2285195
:10071000C4F20201086840F0040008609DF80F0070
:100720009DF80C109DF80D2000F0E2FA4AE144F229
:100730002041C4F20201086840F00200086044F25F
:100740001C51C4F20201086820F00200086044F263
:100750002851C4F20201086840F0020008609DF8C8
:100760000F009DF80C109DF80D2000F0C1FA29E152
:1007700044F22041C4F20201086840F00100086020
:1007800044F21C51C4F20201086820F00100086024
:1007900044F22851C4F20201086840F001000860E8
:1007A0009DF80F009DF80C109DF80D2000F0A0FAA8
:1007B00008E144F22041C4F20201086840F0080058
:1007C000086044F21C51C4F20201086820F00800DD
:1007D000086044F22851C4F20201086840F00800A1
:1007E00008609DF80F009DF80C109DF80D2000F09A
:1007F0007FFAE7E044F22041C4F20201086840F0C9
:100800000400086044F21C51C4F20201086820F0A0
:100810000400086044F22851C4F20201086840F064
:10082000040008609DF80F009DF80C109DF80D2045
:1008300000F05EFAC6E044F22041C4F2020108680A
:1008400040F00200086044F21C51C4F20201086842
:1008500020F00200086044F22851C4F20201086846
:1008600040F0020008609DF80F009DF80C109DF804
:100870000D2000F03DFAA5E044F22041C4F202014F
:10088000086840F00100086044F21C51C4F2020103
:10089000086820F00100086044F22851C4F2020107
:1008A000086840F0010008609DF80F009DF80C10EA
:1008B0009DF80D2000F01CFA84E044F22041C4F2BF
:1008C0000201086840F02000086044F21C51C4F2A4
:1008D0000201086820F02000086044F22851C4F2A8
:1008E0000201086840F0200008609DF80F009DF8A4
:1008F0000C109DF80D2000F0FBF963E044F220415C
:10090000C4F20201086840F01000086044F21C5173
:10091000C4F20201086820F01000086044F2285177
:10092000C4F20201086840F0100008609DF80F0052
:100930009DF80C109DF80D2000F0DAF942E044F229
:100940002041C4F20201086840F01000086044F23F
:100950001C51C4F20201086820F01000086044F243
:100960002851C4F20201086840F0100008609DF8A8
:100970000F009DF80C109DF80D2000F0B9F921E052
:1009800044F22041C4F20201086840F020000860EF
:1009900044F21C51C4F20201086820F020000860F3
:1009A00044F22851C4F20201086840F020000860B7
:1009B0009DF80F009DF80C109DF80D2000F098F99F
:1009C00000E0FFE704B080BD81B08DF803008DF832
:1009D00002109DF80310012000FA01F24EF2386176
:1009E000C4F20F010868104308604EF20861C4F2B7
:1009F0000F01086840F01000086044F22041C4F282
:100A00000201086840F00800086044F21C51C4F27A
:100A10000201086820F00800086044F22851C4F27E
:100A20000201086840F00800086048F20001C4F2C2
:100A30000301086820F00800086048F21402C4F2BC
:100A400003020020106048F2A402C4F203020E2048
:100A50001060086840F00800086001B070470000AE
:100A600083B08DF80B008DF80A108DF809209DF8E1
:100A7000090001460091032800F2C5800099DFE8D3
:100A800001F0022F609148F24001C4F203010868AE
:100A900020F00F009DF80A201043086048F228015A
:100AA000C4F20301086840F001000860FFE748F263
:100AB0000400C4F203000068C00708B9FFE7F6E7C6
:100AC00048F24800C4F203000068ADF8060048F29E
:100AD0000C01C4F20301086840F00100086093E0D3
:100AE00048F26001C4F20301086820F00F009DF88D
:100AF0000A201043086048F22801C4F20301086884
:100B000040F002000860FFE748F20400C4F203006E
:100B1000006800F002010020B0EB510F01D1FFE7A7
:100B2000F2E748F26800C4F203000068ADF806007E
:100B300048F20C01C4F20301086840F002000860AA
:100B400062E048F28001C4F20301086820F00F005F
:100B50009DF80A201043086048F22801C4F20301FE
:100B6000086840F004000860FFE748F20400C4F29F
:100B70000300006800F004010020B0EB910F01D1E8
:100B8000FFE7F2E748F28800C4F203000068ADF81E
:100B9000060048F20C01C4F20301086840F00400AA
:100BA000086031E048F2A001C4F20301086820F0B7
:100BB0000F009DF80A201043086048F22801C4F293
:100BC0000301086840F008000860FFE748F20400ED
:100BD000C4F20300006800F008010020B0EBD10F60
:100BE00001D1FFE7F2E748F2A800C4F20300006871
:100BF000ADF8060048F20C01C4F20301086840F0A9
:100C00000800086000E0FFE7BDF8060003B0704789
:100C100080B582B08DF8070048F2A001C4F203014C
:100C2000086820F00F009DF807201043086048F284
:100C30002801C4F20301086840F008000860FFE7DB
:100C400048F20400C4F2030000680007002801D441
:100C5000FFE7F5E748F2A800C4F203000068ADF82A
:100C6000040048F20C01C4F2030108200860BDF83A
:100C7000040000EE100AB8EE400A10EE100A05F06B
:100C8000DBFB41EC100B9FED141B53EC112B51ECD3
:100C9000100B05F0E5F941EC100B51EC100B9FED3A
:100CA000100B53EC102B05F011F841EC100B51EC2C
:100CB000100B9FED0D0B53EC102B04F05FFF41EC7C
:100CC000100B51EC100B05F05BF9ADF80400BDF80A
:100CD000040002B080BD00BF0000000000F06EC044
:100CE000000000000000B040000000000070624002
:100CF00083B08DF80B008DF80A108DF809209DF84F
:100D00000B000146019128B1FFE70198012800F08E
:100D10008B808AE09DF80A0001460091032800F2CA
:100D200081800099DFE801F00221405F48F2000174
:100D3000C4F20301086820F00100086048F21402C0
:100D4000C4F203020020106048F24402C4F203021D
:100D5000106840F002001060106840F0040010605D
:100D6000086840F0010008605DE048F20001C4F24C
:100D70000301086820F00200086048F21402C4F27F
:100D800003020020106048F26402C4F203021068FB
:100D900040F002001060106840F004001060086825
:100DA00040F0020008603EE048F20001C4F2030196
:100DB000086820F00400086048F21402C4F203023C
:100DC0000020106048F28402C4F20302106840F070
:100DD00002001060106840F004001060086840F0E5
:100DE000040008601FE048F20001C4F20301086833
:100DF00020F00800086048F21402C4F20302002048
:100E0000106048F2A402C4F20302106840F002002D
:100E10001060106840F004001060086840F008009E
:100E2000086000E0FFE701E000E0FFE703B0704783
:100E300084B000208DF807008DF80700FFE79DF8CB
:100E400007002F2800F37282FFE79DF8070000F0EB
:100E5000070003909DF80700C00802900299012046
:100E600000FA01F24EF20861C4F20F010868104363
:100E70000860FFE74EF60820C4F20F0000680299F0
:100E800001228A401040C84008B9FFE7F2E7029803
:100E90000090052800F243820099DFE811F0060077
:100EA0006500C40023018201E10144F22051C4F233
:100EB000000144F24B30C4F64F4008609DF8071023
:100EC00046F23450C0F2000010F81100012820D181
:100ED000FFE70399012000FA01F344F22452C4F21F
:100EE0000002116819431160039900FA01F344F2FA
:100EF0000042C4F20002116819431160039900FA1C
:100F000001F244F21C51C4F2000108681043086069
:100F100029E00399012000FA01F344F22452C4F2BB
:100F20000002116819431160039900FA01F344F2B9
:100F30000042C4F20002116899431160039900FA5B
:100F400001F344F21C52C4F200021168194311600B
:100F5000039900FA01F244F21451C4F20001086846
:100F600010430860FFE7DAE145F22051C4F20001C6
:100F700044F24B30C4F64F4008609DF8071046F22B
:100F80003450C0F2000010F81100012820D1FFE712
:100F90000399012000FA01F345F22452C4F2000241
:100FA000116819431160039900FA01F345F20042F8
:100FB000C4F20002116819431160039900FA01F2AA
:100FC00045F21C51C4F2000108681043086029E092
:100FD0000399012000FA01F345F22452C4F2000201
:100FE000116819431160039900FA01F345F20042B8
:100FF000C4F20002116899431160039900FA01F3E9
:1010000045F21C52C4F200021168194311600399A1
:1010100000FA01F245F21451C4F2000108681043CD
:101020000860FFE77BE146F22051C4F2000144F280
:101030004B30C4F64F4008609DF8071046F234501C
:10104000C0F2000010F81100012820D1FFE7039939
:10105000012000FA01F346F22452C4F200021168A2
:1010600019431160039900FA01F346F20042C4F2F9
:101070000002116819431160039900FA01F246F267
:101080001C51C4F2000108681043086029E003996C
:10109000012000FA01F346F22452C4F20002116862
:1010A00019431160039900FA01F346F20042C4F2B9
:1010B0000002116899431160039900FA01F346F2A6
:1010C0001C52C4F20002116819431160039900FA1E
:1010D00001F246F21451C4F200010868104308609E
:1010E000FFE71CE147F22051C4F2000144F24B300B
:1010F000C4F64F4008609DF8071046F23450C0F225
:10110000000010F81100012820D1FFE70399012009
:1011100000FA01F347F22452C4F2000211681943A5
:101120001160039900FA01F347F20042C4F2000291
:10113000116819431160039900FA01F247F21C513A
:10114000C4F2000108681043086029E003990120F7
:1011500000FA01F347F22452C4F200021168194365
:101160001160039900FA01F347F20042C4F2000251
:10117000116899431160039900FA01F347F21C5278
:10118000C4F20002116819431160039900FA01F2D8
:1011900047F21451C4F20001086810430860FFE7E9
:1011A000BDE044F22051C4F2020144F24B30C4F6D7
:1011B0004F4008609DF8071046F23450C0F200001E
:1011C00010F81100012820D1FFE70399012000FA4F
:1011D00001F344F22452C4F202021168194311606F
:1011E000039900FA01F344F20042C4F202021168CA
:1011F00019431160039900FA01F244F21C51C4F240
:10120000020108681043086029E00399012000FAF0
:1012100001F344F22452C4F202021168194311602E
:10122000039900FA01F344F20042C4F20202116889
:1012300099431160039900FA01F344F21C52C4F27D
:101240000202116819431160039900FA01F244F295
:101250001451C4F20201086810430860FFE75EE021
:1012600045F22051C4F2020144F24B30C4F64F4023
:1012700008609DF8071046F23450C0F2000010F8E4
:101280001100012820D1FFE70399012000FA01F3A2
:1012900045F22452C4F20202116819431160039905
:1012A00000FA01F345F20042C4F202021168194348
:1012B0001160039900FA01F245F21C51C4F20201D7
:1012C00008681043086029E00399012000FA01F33F
:1012D00045F22452C4F202021168194311600399C5
:1012E00000FA01F345F20042C4F202021168994388
:1012F0001160039900FA01F345F21C52C4F2020294
:10130000116819431160039900FA01F245F2105176
:10131000C4F20201086810430860FFE7FFE7FFE737
:101320009DF8070001308DF8070088E504B070478C
:1013300082B08DF807008DF8061000208DF80500AA
:101340009DF8060000F007008DF806009DF80700E4
:1013500001460091052859D80099DFE801F00311F2
:101360001F2D3B4944F2FC30C4F2000000689DF898
:10137000061001228A401040C8408DF8050045E063
:1013800045F2FC30C4F2000000689DF8061001220E
:101390008A401040C8408DF8050037E046F2FC3026
:1013A000C4F2000000689DF8061001228A40104037
:1013B000C8408DF8050029E047F2FC30C4F2000077
:1013C00000689DF8061001228A401040C8408DF840
:1013D00005001BE044F2FC30C4F2020000689DF8F6
:1013E000061001228A401040C8408DF805000DE02B
:1013F00045F2FC30C4F2020000689DF8061001229C
:101400008A401040C8408DF80500FFE79DF80500B0
:1014100002B0704782B08DF807008DF806108DF885
:1014200005209DF8070001460091052800F2C680BE
:101430000099DFE801F00323436383A39DF80500CF
:1014400001280DD1FFE79DF80610012000FA01F2F6
:1014500044F2FC31C4F200010868104308600CE05B
:101460009DF80610012000FA01F244F2FC31C4F2AA
:101470000001086890430860FFE79FE09DF80500C1
:1014800001280DD1FFE79DF80610012000FA01F2B6
:1014900045F2FC31C4F200010868104308600CE01A
:1014A0009DF80610012000FA01F245F2FC31C4F269
:1014B0000001086890430860FFE77FE09DF80500A1
:1014C00001280DD1FFE79DF80610012000FA01F276
:1014D00046F2FC31C4F200010868104308600CE0D9
:1014E0009DF80610012000FA01F246F2FC31C4F228
:1014F0000001086890430860FFE75FE09DF8050081
:1015000001280DD1FFE79DF80610012000FA01F235
:1015100047F2FC31C4F200010868104308600CE097
:101520009DF80610012000FA01F247F2FC31C4F2E6
:101530000001086890430860FFE73FE09DF8050060
:1015400001280DD1FFE79DF80610012000FA01F2F5
:1015500044F2FC31C4F202010868104308600CE058
:101560009DF80610012000FA01F244F2FC31C4F2A9
:101570000201086890430860FFE71FE09DF805003E
:1015800001280DD1FFE79DF80610012000FA01F2B5
:1015900045F2FC31C4F202010868104308600CE017
:1015A0009DF80610012000FA01F245F2FC31C4F268
:1015B0000201086890430860FFE7FFE702B0704748
:1015C00083B08DF80B0001919DF80B00014600914E
:1015D00005282FD80099DFE801F0030A11181F260B
:1015E000019844F2FC31C4F20001086022E0019845
:1015F00045F2FC31C4F2000108601BE0019846F29C
:10160000FC31C4F20001086014E0019847F2FC319B
:10161000C4F2000108600DE0019844F2FC31C4F20C
:101620000201086006E0019845F2FC31C4F20201B3
:101630000860FFE703B0704780B582B000208DF8E6
:10164000070005202821FFF773FE20B9FFE70120DE
:101650008DF8070003E000208DF80700FFE79DF8F4
:10166000070002B080BD000080B5012000F002F844
:1016700080BD000080B586B08DF817009DF817106A
:1016800001200190FFF79CFF0199052002900022A4
:101690000492FFF7BFFE0298049A0221FFF7BAFEF8
:1016A000019A029803210391FFF7B4FE282000F06D
:1016B00017FF02980399049AFFF7ACFE06B080BDAD
:1016C00080B582B0019000910198012806D1FFE712
:1016D00000988030C0B2FFF7CDFF0BE001980228E0
:1016E00006D1FFE70098C030C0B2FFF7C3FF00E0AB
:1016F000FFE7FFE702B080BD80B584B08DF80F0032
:101700008DF80E1002929DF80F00014600910128FD
:1017100004D0FFE7009802280CD017E09DF80E00D7
:10172000082161F31F108DF807009DF80700FFF7EF
:10173000A1FF0BE09DF80E000C2161F31F108DF846
:1017400007009DF80700FFF795FFFFE7029800F0FC
:10175000F9F804B080BD000080B582B0FFF768FBE7
:10176000282000F09DFE3820FFF784FF32200090F3
:1017700000F0B6FE0E20FFF77DFF009800F0B0FEEF
:101780000120FFF777FF0220019000F089FE0F2073
:10179000FFF770FF042000F0A3FE0198FFF76AFF37
:1017A00002B080BD80B58AB009900020ADF81E005F
:1017B000ADF81A00FFE703F04BFD089003F048FD79
:1017C000ADF8180042F21420C2F2000000680DF1DA
:1017D0001E014FF0FF3203F0CFF9BDF81E000928BB
:1017E00004DCFFE702208DF81D000BE042F2102020
:1017F000C2F2000000680DF11D014FF0FF3203F04E
:10180000BBF9FFE742F20820C2F2000000680DF1C8
:101810001A014FF0FF3203F0AFF9012003900921C4
:101820000491FFF74DFF46F22F60C0F2000000F078
:1018300089F803980499FFF743FFBDF81E00632859
:1018400007D1FFE746F23560C0F2000000F07AF8F9
:1018500004E0BDF81E0000F08BF8FFE702200190C5
:1018600004210291FFF72CFF46F22E60C0F2000027
:1018700000F068F801980299FFF722FF9DF81D001B
:10188000022807D1FFE746F23B60C0F2000000F0FB
:1018900059F818E09DF81D0038B9FFE746F2476097
:1018A000C0F2000000F04EF80CE09DF81D00012889
:1018B00007D1FFE746F24260C0F2000000F042F8B4
:1018C000FFE7FFE7FFE703F0C3FCADF81600BDF844
:1018D0001600BDF81810401AADF81400FFE708A86C
:1018E000782103F00DFCFFE765E7000080B586B0C6
:1018F0008DF8170005200190012200921146FFF794
:1019000089FD0198022100220392FFF783FD0098D0
:101910009DF81710FFF754FE009A019803210291D9
:10192000FFF778FD4FF47A70049000F0D9FD01982C
:101930000299039AFFF76EFD049800F0D1FD06B0FE
:1019400080BD000080B582B0019000200090FFE7CC
:1019500001980099405C48B1FFE701980099405C0C
:10196000FFF7C4FF009801300090F1E702B080BD9E
:1019700080B58CB00B9000208DF82700FFE70B9806
:1019800000B3FFE70B9846F26761C6F2666150FB51
:1019900001F39A1002EBD37202EB8202A0EB420039
:1019A0009DF827300DF10702D0540B9850FB01F140
:1019B000881000EBD1700B909DF8270001308DF856
:1019C0002700DCE79DF8270001380A90FFE70A9816
:1019D00000280DD4FFE70A990DF10700405C303074
:1019E000C0B2FFF783FFFFE70A9801380A90EEE7DD
:1019F0000CB080BD80B586B005900020ADF80A001F
:101A0000ADF80800FFE703F023FC049003F020FC8E
:101A1000ADF8060000F0F6F8ADF8080000F0E2F8C6
:101A2000ADF80A00BDF80A00ADF80C00BDF80800DA
:101A3000ADF80E0042F20420C2F20000006803A9D3
:101A400000231A4602F05EFF03F002FCADF804002A
:101A5000BDF80400BDF80610401AADF80200FFE71B
:101A600004A8142103F04CFBFFE7CCE780B588B055
:101A70000790FFE703F0ECFB069003F0E9FBADF8FD
:101A8000100042F20420C2F20000006805A94FF0E5
:101A9000FF3203F071F8BDF81400BDF81610401ABB
:101AA00080B2C72804DCFFE702208DF8130025E090
:101AB000BDF81600BDF81410401A80B2C72804DC27
:101AC000FFE702208DF8130017E0BDF81400BDF801
:101AD0001610884204DAFFE701208DF813000BE0AE
:101AE000BDF81600BDF81410884204DAFFE70020A4
:101AF0008DF81300FFE7FFE7FFE7FFE742F2102052
:101B0000C2F2000000680DF1130100231A4602F032
:101B1000F9FE9DF81300022815D1FFE742F21C20C0
:101B2000C2F20000029000684FF0FF3103F012F99A
:101B3000022000F095F802980068002319461A4622
:101B400002F0E0FE34E09DF81300A8B9FFE742F28E
:101B50001C20C2F20000019000684FF0FF3103F03A
:101B6000F9F8042000F07CF8019800680023194679
:101B70001A4602F0C7FE1AE09DF81300012815D19D
:101B8000FFE742F21C20C2F20000009000684FF014
:101B9000FF3103F0DFF8032000F062F800980068DE
:101BA000002319461A4602F0ADFEFFE7FFE7FFE704
:101BB00003F04EFBADF80E00BDF80E00BDF810109E
:101BC000401AADF80C00FFE706A8142103F098FABC
:101BD000FFE74FE780B50021022308461A46FEF7CB
:101BE00025FD80BD80B5002002221146FEF738FF9A
:101BF00080BD000080B50021012308461A46FEF78B
:101C000015FD80BD80B5002001221146FEF728FF9A
:101C100080BD000080B582B0019000F0EBF9FFF7C5
:101C20009BFD00F00DF800F0E9FAFFF7D3FFFFF796
:101C3000E1FF01F0ADFE002002F0C0FB02B080BD6C
:101C400080B5FFF7F5F800F0D1F8462000F06AF90A
:101C500080BD000040F27C00C2F2000000787047B6
:101C600080B592B08DF847009DF84700014610916D
:101C7000052800F2B8801099DFE801F0033F205DED
:101C80007A9703200E90022100220F92FFF7C2FBE9
:101C90000E990F9A0846FFF7BDFB0E980F9A062182
:101CA000FFF7B8FB0E980F9A0721FFF7B3FB0F98C9
:101CB00040F27C01C2F20001087095E003200B9015
:101CC00002210D9100220A92FFF7A4FB0B99012239
:101CD0000C920846FFF79EFB0A9A0B980621FFF725
:101CE00099FB0B980C9A0721FFF794FB0D9840F293
:101CF0007C01C2F20001087076E003200790022107
:101D000001220992FFF786FB0799002208920846F4
:101D1000FFF780FB0798099A0621FFF77BFB0798DE
:101D2000089A0721FFF776FB099840F27C01C2F27E
:101D30000001087058E0032006900221002205925D
:101D4000FFF768FB059A06990846FFF763FB059ABB
:101D500006980621FFF75EFB069807210122FFF790
:101D600059FB069840F27C01C2F2000108703BE08A
:101D70000321039101220846FFF74CFB039802213F
:101D800000220492FFF746FB0398049A0621FFF70E
:101D900041FB0398049A0721FFF73CFB40F27C01CA
:101DA000C2F20001042008701EE00320019002210D
:101DB00000220292FFF72EFB0199012200920846B1
:101DC000FFF728FB009A01980621FFF723FB0198F3
:101DD000029A0721FFF71EFB40F27C01C2F20001CC
:101DE0000520087000E0FFE712B080BD80B582B02A
:101DF000FFF71EF84EF20011C4F20F01086840F41C
:101E00008010086000200190FFE7019842F20F71F6
:101E1000884205D8FFE7FFE7019801300190F4E719
:101E20004EF26001C4F20F01086820F480100860CF
:101E300044F22041C4F20201086840F0100008603A
:101E4000086840F02000086044F22C51C4F20201FE
:101E5000086840F48800086044F21C51C4F2020192
:101E6000086840F010000860086840F02000086032
:101E700048F2C001C4F202010020086048F2E0020A
:101E8000C4F20202106840F004001060106840F0D4
:101E900008001060106820F040001060106840F0EA
:101EA0008000106048F2E402C4F20202106840F0C0
:101EB00004001060106840F008001060106820F006
:101EC00040001060106840F40060106040F20400B0
:101ED000C2F20000006848F2D002C4F202021060B0
:101EE00040F20000C2F20000026848F2DC03C4F2D3
:101EF00002031A60006848F2D802C4F202021060BD
:101F0000086840F00100086048F20801C4F20201CC
:101F1000086840F010000860086840F02000086081
:101F200002B080BD81B08DF8030040F20401C2F21E
:101F3000000108689DF80320424348F21F53C5F290
:101F4000EB13A2FB03C2A0EB521240F20000C2F25C
:101F50000000026009689DF803204A43A2FB033297
:101F6000A1EB52110160016848F2DC02C4F20202E6
:101F70001160006848F2D801C4F20201086001B0A3
:101F8000704700000000000000000000000000009A
:101F9000EFF30980BFF36F8F154B1A681EF0100F17
:101FA00008BF20ED108A20E9F04F10602DE90900EC
:101FB0004FF0A00080F31188BFF34F8FBFF36F8FF6
:101FC00002F0C2FA4FF0000080F31188BDE809006A
:101FD00019680868B0E8F04F1EF0100F08BFB0ECA9
:101FE000108A80F30988BFF36F8F704700BF00BF6E
:101FF0008800002080B5FEF71BFF80BD00000000B8
:10200000074B19680868B0E8F04F80F30988BFF300
:102010006F8F4FF0000080F31188704700BF00BF42
:102020008800002080B586B005904EF660200390B1
:1020300000208DF80B00FFE703F00AF90490FFF78A
:10204000FBFA01281ED1FFE7FFF70EFB46F20662FE
:10205000C0F20002012000210191FFF74DFB019920
:1020600046F21062C0F200020220FFF745FB019821
:102070008DF80B00FFE704A84EF6602103F040F84E
:10208000FFE715E09DF80B0088B9FFE7FFF7ECFAD2
:1020900046F21560C0F20000FFF754FC0020FFF785
:1020A000DFFD9DF80B0001308DF80B00FFE7FFE727
:1020B000C2E7000080B582B04FF0A00080F3118825
:1020C000BFF36F8FBFF34F8F009003F0CBF840B199
:1020D000FFE74EF60451CEF200014FF08050086049
:1020E000FFE700200190019880F3118802B080BDC5
:1020F00081B04EF68851CEF20001086840F47000BD
:1021000008604EF27001C4F20F0142F61000C0F2F6
:10211000807008604EF26002C4F20F0243F6D120D4
:10212000C0F28E70106042F64250C0F29E101060F5
:1021300042F60000C0F28010086000200090FFE727
:102140000098C0087C2805D8FFE7FFE70098013019
:102150000090F5E74EF26001C4F20F0140F64250E4
:10216000C0F29E1008604EF27001C4F20F0140F6FA
:102170000000C0F28010086000200090FFE7009887
:10218000C0087C2805D8FFE7FFE7009801300090E1
:10219000F5E74EF26001C4F20F0140F64250C0F282
:1021A000DE100860FFE74EF25000C4F20F00006836
:1021B00000F04000402801D0FFE7F4E74EF2600154
:1021C000C4F20F0140F24250C0F2DE1008604EF23D
:1021D0007001C4F20F014FF0C07008600020009041
:1021E000FFE7009842F20F71884205D8FFE7FFE74A
:1021F000009801300090F4E701B0704780B50021ED
:102200000846FEF7E1FB80BD80B582B00020FEF7F6
:10221000FFFCADF80600BDF8060002B080BD00006E
:1022200080B582B00190FFE700200090FFF718FD15
:10223000FFF71AFA009946F21E62C0F2000201206E
:10224000FFF75AFA40F6B83000F02AF9FFF70CFA17
:1022500002F072F9E8E7000080B584B00390002036
:10226000ADF80600FFE702F0F3FF029002F0F0FF86
:10227000ADF80400FFF7C8FFADF80600BDF8060092
:10228000332808DBFFE740F27800C2F20000006864
:1022900001F050FFFFE742F20820C2F200000068A0
:1022A0000DF1060100231A4602F02CFB02F0D0FFCC
:1022B000ADF80200BDF80200BDF80410401AADF8F8
:1022C0000000FFE702A8142102F01AFFFFE7CAE7A7
:1022D00080B584B003900020ADF80600FFE702F05F
:1022E000B7FF029002F0B4FFADF8040001F0C4FAA9
:1022F000ADF8060042F20C20C2F2000000680DF1B9
:10230000060100231A4602F0FDFA02F0A1FFADF823
:102310000200BDF80200BDF80410401AADF800003C
:10232000FFE702A80A2102F0EBFEFFE7D7E7000073
:1023300080B586B005900020ADF80E008DF80D0038
:10234000FFE702F085FF049002F082FFADF80A007B
:1023500042F20C20C2F2000000680DF10E014FF0B5
:10236000FF3202F009FCBDF80E00012804DCFFE793
:102370006320ADF80E00FFE742F21420C2F2000025
:1023800000680DF10E0100231A4602F0BBFAFFF7B8
:1023900061FC012815D1FFE79DF80D00092806DC36
:1023A000FFE79DF80D0001308DF80D0008E00520D5
:1023B000FFF756FC9DF80D0001308DF80D00FFE78A
:1023C0005CE0FFF747FC052810D1FFE79DF80D0002
:1023D000132806DCFFE79DF80D0001308DF80D0095
:1023E00003E00020FFF73CFCFFE746E0BDF80E00ED
:1023F000092829DCFFE79DF80D0090B9FFE742F2BC
:102400001C20C2F2000000684FF0FF3102F0A2FC75
:102410000120FFF725FC9DF80D0001308DF80D001F
:1024200011E09DF80D0014280CD1FFE700208DF875
:102430000D000120FFF714FC9DF80D0001308DF810
:102440000D00FFE7FFE717E09DF80D00142812D1FB
:10245000FFE742F21C20C2F2000000680023009354
:1024600019461A4602F04EFA00988DF80D00022027
:10247000FFF7F6FBFFE7FFE7FFE7FFE702F0E8FE05
:10248000ADF80800BDF80800BDF80A10401AADF814
:102490000600FFE704A80A2102F032FEFFE750E73A
:1024A00083B0029000200190FFE7019802998842D2
:1024B00013DAFFE700200090FFE7009840F66B4139
:1024C000884205DCFFE7FFE7009801300090F4E761
:1024D000FFE7019801300190E7E703B07047000083
:1024E00083B0029000200190FFE701980299884292
:1024F00011DAFFE700200090FFE70098022805DCD2
:10250000FFE7FFE7009801300090F6E7FFE701984A
:1025100001300190E9E703B07047000082B001206C
:1025200001908DF8030042F2F010C2F20000006842
:1025300020B1FFE700208DF803002BE042F2542089
:10254000C2F20000006820B1FFE700208DF8030010
:102550001FE042F2EC10C2F20000006820B1FFE779
:1025600000208DF8030013E042F22020C2F20000A8
:10257000006842F27411C2F2000109680139884210
:1025800004D1FFE702208DF8030000E0FFE7FFE73A
:10259000FFE7FFE79DF8030002B070470C21C4F28B
:1025A0000301086820F00100086070470C21C4F2A4
:1025B0000301086840F001000860704781B04820BE
:1025C000C4F2030000680090009801B0704700005A
:1025D00081B08DF803004EF20461C4F20F01086867
:1025E00040F0010008600C21C4F20301086820F0EB
:1025F00001000860086840F0020008600021C4F291
:102600000301042008609DF803200421C4F20301A3
:1026100008681043086001B07047000081B0009066
:1026200000982821C4F2030108600C21C4F20301C0
:10263000086840F00100086001B0704780B58AB0BA
:1026400000220792099202200690042102F088F8E5
:102650000699079A42F20423C2F200031860084662
:1026600002F07EF80699079A42F20823C2F20003AC
:102670001860084602F074F8079A0146069842F27C
:102680000C23C2F2000319600121089102F068F8DE
:102690000699079A42F21023C2F200031860084616
:1026A00002F05EF807990246089842F21423C2F23B
:1026B00000031A60032202F053F8014642F21C2084
:1026C000C2F200000160006858B1FFE742F21C202E
:1026D000C2F200000068002319461A4602F012F9FF
:1026E000FFE76946002305934B600920086041F627
:1026F0001540C0F2000046F2F051C0F20001802205
:10270000049202F0ADFC049A059B69464B600720D9
:10271000086042F22500C0F2000046F2E451C0F227
:10272000000102F09DFC049A059B69464B6006205F
:10273000086042F2D120C0F2000046F29D51C0F282
:10274000000102F08DFC049A059B69464B60042051
:10275000086041F6F510C0F2000046F29451C0F254
:10276000000102F07DFC049A059B69464B60022043
:10277000086042F25920C0F2000046F2AD51C0F2AA
:10278000000102F06DFC049A059B69464B60052030
:10279000086042F23130C0F2000046F2D251C0F27D
:1027A000000102F05DFC049A059B40F27400C2F245
:1027B0000000694648600320086041F66D20C0F2C1
:1027C000000046F2BD51C0F2000102F049FC049A3B
:1027D000059B40F27800C2F2000003906946486011
:1027E0000820086042F22120C0F2000046F2C851E1
:1027F000C0F2000102F034FC0398006801F0DEFD35
:10280000049A059B40F27000C2F2000069464860DD
:102810000120086041F2A570C0F2000046F2FC51B0
:10282000C0F2000102F01CFC01F008FDFFE7FEE72A
:1028300080B586B00590049142F24820C2F20000B3
:102840000068029040F28800C2F200000268002195
:1028500082F855100068043001F0A6F888B9FFE747
:1028600040F28800C2F200000068C16A012000FA4C
:1028700001F242F28411C2F200010868904308603C
:1028800000E0FFE70598013018BBFFE7049800B3AC
:10289000FFE742F22021C2F2000148680190019A4C
:1028A00040F28800C2F2000003689A60019A9268C0
:1028B0000368DA6002680432019B9B685A60026810
:1028C0000432019B9A600068416108680130086029
:1028D0003DE00298059908440390039840F288016E
:1028E000C2F20001096848600398029988420ED23A
:1028F000FFE740F29400C2F20000006840F2880155
:10290000C2F200010968043101F098F81EE040F2BB
:102910009000C2F20000006840F28801C2F200019B
:102920000968043101F08AF8039842F2E411C2F216
:1029300000010968884207D2FFE7039842F2E411D8
:10294000C2F20001086000E0FFE7FFE7FFE706B022
:1029500080BD000080B582B0019001F0CDF842F258
:102960007411C2F2000108680130086040F288006A
:10297000C2F20000006898B9FFE7019840F28801B0
:10298000C2F20001086042F27410C2F20000006856
:10299000012803D1FFE700F0F9FA00E0FFE71CE0AF
:1029A00042F21820C2F200000068A0B9FFE740F22E
:1029B0008800C2F200000068C06A0199C96A8842B2
:1029C00007D8FFE7019840F28801C2F200010860D1
:1029D00000E0FFE700E0FFE7FFE742F28010C2F20D
:1029E00000000168013101600068019908640198E4
:1029F000C16A012000FA01F242F28411C2F2000120
:102A00000868104308600198C06A00EB800040F23B
:102A10009C01C2F2000101EB800040680090009828
:102A2000019A906000988068019AD0600198043003
:102A3000009A9268506001980430009A9060019A60
:102A4000D06A00EB800001EB800050610198C06A01
:102A500000EB800251F82200013041F8220001F021
:102A600077F842F21820C2F200000068C8B1FFE710
:102A700040F28800C2F200000068C06A0199C96A89
:102A800088420CD2FFE74EF60451CEF200014FF01F
:102A900080500860BFF34F8FBFF36F8F00E0FFE7F8
:102AA00000E0FFE702B080BD80B582B001F024F8FD
:102AB00042F24C20C2F20000006828BBFFE742F25D
:102AC0008810C2F20000009000F098FF42F29C10C3
:102AD000C2F20000019000F091FF0099019840F2CD
:102AE0008C02C2F20002116040F29801C2F20001B1
:102AF000086005201021002201F032FE42F24C2134
:102B0000C2F20001086000E0FFE701F021F802B026
:102B100080BD000080B582B0FFE742F27810C2F2BB
:102B20000000006808B3FFE700F0E6FF42F234203F
:102B3000C2F20000C068C06801900198043000F043
:102B400033FF42F27411C2F20001086801380860D4
:102B500042F27811C2F2000108680138086000F002
:102B6000F7FF019800F08CF8D7E702B080BD0000B5
:102B700080B582B0019000910198006CB8B1FFE778
:102B80000199C8680A6C1044C86001988168C068DF
:102B9000884204D3FFE701990868C86000E0FFE7B6
:102BA0000098019AD168126CFDF73AFCFFE702B079
:102BB00080BD000080B586B005900491039200208E
:102BC00002900598806B01900598006C78B9FFE73A
:102BD0000598006848B9FFE70598806802F072FC24
:102BE000029005990020886000E0FFE741E003982B
:102BF000B8B9FFE7059A04995068126CFDF710FC0C
:102C0000059948680A6C10444860059948688968C5
:102C1000884204D3FFE705990868486000E0FFE7B1
:102C200026E0059A0499D068126CFDF7F9FB059926
:102C3000C8680A6C801AC86005980168C068884234
:102C400006D2FFE7059988680A6C801AC86000E020
:102C5000FFE70398022809D1FFE7019820B1FFE7B9
:102C600001980138019000E0FFE700E0FFE7FFE78F
:102C7000FFE70198013005998863029806B080BD8E
:102C800080B582B001900198006B00F087FF019839
:102C900000F084FF02B080BD82B001900198406ACC
:102CA00038B1FFE70198006B0068C0F10A0000909E
:102CB00002E000200090FFE7009802B0704700009B
:102CC00083B0002001900120009042F28410C2F2F3
:102CD00000000068022803D3FFE701200190FFE70E
:102CE00040F28800C2F200000068C06A18B1FFE735
:102CF000002002901FE040F29C00C2F20000006839
:102D0000022803D3FFE70020029013E0019818B1D6
:102D1000FFE7002002900CE042F2E410C2F2000053
:102D2000006842F24821C2F200010968401A02908C
:102D3000FFE7FFE7FFE7029803B0704782B001901A
:102D400040F28C00C2F2000000680068B0FA80F027
:102D50004009019908600198006848B9FFE740F20E
:102D60008C00C2F200000068C0680068009002E0B9
:102D700000200090FFE7009802B0704780B584B053
:102D80000290FFE7FFF7C6FE40F29C00C2F200008F
:102D9000006802280CD3FFE74EF60451CEF2000182
:102DA0004FF080500860BFF34F8FBFF36F8F00E08C
:102DB000FFE7FFF785FF01900198022829D3FFE77D
:102DC00001F0BAFB42F2E410C2F20000006842F2E5
:102DD0004821C2F20001096888420BD2FFE74FF098
:102DE000A00080F31188BFF36F8FBFF34F8F039064
:102DF000FFE7FEE7FFF764FF01900198022804D384
:102E0000FFE7019800F018FF00E0FFE702F06EFD19
:102E100000E0FFE7B6E7000080B584B0DDF818C039
:102E20000390029101928DF80330029818B9FFE7E0
:102E30000698006003E0019806990860FFE7039890
:102E40000699C8630298069908640698012101F062
:102E5000D5FC9DF80300069981F8500006990020E2
:102E6000886404B080BD000080B588B0DDF834C04F
:102E7000DDF830C0DDF82CC0DDF828C005900491E5
:102E8000039202930C98006B03998900A522FDF729
:102E90000CFB0C98006B039900EB81000438019047
:102EA000019820F0070001909DF80400400758B1F8
:102EB000FFE74FF0A00080F31188BFF36F8FBFF3DF
:102EC0004F8F0790FFE7FEE70498F8B1FFE7002077
:102ED0000090FFE70098092813D8FFE70498009AAC
:102EE000805C0C99114481F8340004980099405C8E
:102EF00008B9FFE705E0FFE7FFE700980130009021
:102F0000E8E70C99002081F83D0000E0FFE70A980F
:102F10000A280BD3FFE74FF0A00080F31188BFF31E
:102F20006F8FBFF34F8F0690FFE7FEE70A980A28DE
:102F300003D3FFE709200A9000E0FFE70A980C9905
:102F4000C8620A980C9988640C98043000F06EFDF1
:102F50000C98183000F06AFD0C9800610A98C0F1D6
:102F60000A000C9988610C98406201980599029AB0
:102F700000F052FC0C9908600B9820B1FFE70C9808
:102F80000B99086000E0FFE708B080BD80B584B011
:102F900000200390FFE70398092810D8FFE7039863
:102FA00000EB800140F29C00C2F2000000EB8100C7
:102FB00000F024FDFFE7039801300390EBE742F2B5
:102FC000B010C2F20000019000F018FD42F2C410EF
:102FD000C2F20000029000F011FD42F2F010C2F2C5
:102FE000000000F00BFD42F23420C2F2000000F0BD
:102FF00005FD42F22020C2F2000000F0FFFC019922
:10300000029840F29002C2F20002116040F2940174
:10301000C2F20001086004B080BD000080B586B037
:103020000590049103920293002001900498059961
:1030300048600598006104980399884216D8FFE714
:1030400003980299401A05998969884203D3FFE7DA
:103050000120019009E040F29800C2F200000068EF
:103060000599043100F0EAFCFFE717E003980299A4
:10307000884208D2FFE704980299884203D3FFE709
:103080000120019009E040F28C00C2F200000068CB
:103090000599043100F0D2FCFFE7FFE7019806B084
:1030A00080BD000080B582B0019000F025FD019840
:1030B000806B18B9FFE70120009002E0002000902B
:1030C000FFE700F045FD009802B080BD80B582B0FA
:1030D000019000F011FD0198806B0199C96B884245
:1030E00003D1FFE70120009002E000200090FFE7FD
:1030F00000F02EFD009802B080BD000080B588B0C1
:1031000004900498806C039000200290039858B9B2
:10311000FFE74FF0A00080F31188BFF36F8FBFF37C
:103120004F8F0790FFE7FEE70398806B0399C96B09
:1031300088420BD3FFE74FF0A00080F31188BFF364
:103140006F8FBFF34F8F0690FFE7FEE70398806B0A
:103150000399C96B884243D2FFE7039890F8450072
:103160008DF80700039804A90022FFF723FD0290C1
:103170009DF90700013088B9FFE70398406A58B10C
:10318000FFE70398243002F0E7FA18B1FFE70120C7
:10319000029000E0FFE700E0FFE720E000F028FCFD
:1031A00000909DF907000099884217D2FFE79DF92A
:1031B00007007F280BD1FFE74FF0A00080F31188B4
:1031C000BFF36F8FBFF34F8F0590FFE7FEE79DF8CA
:1031D00007000130039981F84500FFE7FFE700E0B1
:1031E000FFE7029808B080BD08480068006880F3D7
:1031F00008884FF0000080F3148862B661B6BFF310
:103200004F8FBFF36F8F00DF00BF000008ED00E0BD
:1032100080B584B00390029140F28C00C2F20000AD
:103220000068C068C06801900198043000F0BCFBE1
:10323000019890F828004007002806D5FFE701987C
:103240000399029A00F01CF907E0019991F828000F
:1032500000F0FE0081F82800FFE70198016A884726
:1032600004B080BD80B58CB0FFE742F24C20C2F2C2
:103270000000006806A9002201F07EFC002800F092
:10328000AF80FFE70698B0F1FF3F17DCFFE706A825
:1032900004300290029858B9FFE74FF0A00080F385
:1032A0001188BFF36F8FBFF34F8F0B90FFE7FEE7DF
:1032B00002990A6848688968904700E0FFE7069825
:1032C000002800F18C80FFE7089805900598406978
:1032D00028B1FFE70598043000F066FB00E0FFE747
:1032E00004A800F005F90390069801380146019101
:1032F000082800F272800199DFE801F00505323AF2
:103300005B0505323A00059991F8280040F001006C
:1033100081F828000598079B81691944039AFFF7F3
:103320007DFED8B1FFE7059890F8280040070028F7
:1033300008D5FFE70598079982691144039A00F0C0
:103340009FF807E0059991F8280000F0FE0081F849
:103350002800FFE70598016A884700E0FFE73DE0A5
:10336000059991F8280000F0FE0081F8280035E06A
:10337000059991F8280040F0010081F8280007988D
:10338000059988610598806958B9FFE74FF0A0005A
:1033900080F31188BFF36F8FBFF34F8F0A90FFE761
:1033A000FEE70598039B816919441A46FFF736FE2C
:1033B00014E0059890F828008007002804D4FFE75F
:1033C000059800F0EBFB07E0059991F8280000F064
:1033D000FE0081F82800FFE700E0FFE7FFE744E791
:1033E0000CB080BD80B584B00390029101F0A4F8C8
:1033F000684600F07DF801900098D8BBFFE702987E
:1034000060B9FFE703980199884207D8FFE702F007
:103410006DFA03980199FFF7FBFE2AE0029858B174
:10342000FFE740F29800C2F2000000680068B0FABE
:1034300080F040090290FFE742F24C20C2F2000007
:1034400000680399019A891A029A00F005FD02F0BA
:103450004DFA60B9FFE74EF60451CEF200014FF08D
:1034600080500860BFF34F8FBFF36F8F00E0FFE71E
:10347000FFE702E002F03AFAFFE704B080BD000087
:1034800080B584B0039002910192FFE70398029BFC
:1034900081691944019AFFF7C1FD48B1FFE703981C
:1034A00081690298084402900398016A8847EDE711
:1034B00004B080BD40F29000C2F2000000680068D5
:1034C00040B9FFE742F2E411C2F200014FF0FF30D1
:1034D00008600CE040F29000C2F200000068C06892
:1034E000006842F2E411C2F200010860FFE7704791
:1034F00080B582B0019001F0ABFE0090009840F2E0
:103500008001C2F200010968884206D2FFE700F09C
:1035100011F801990120086003E00199002008607A
:10352000FFE7009840F28001C2F2000108600098B5
:1035300002B080BD80B582B0FFE740F28C00C2F2DD
:1035400000000068006870B1FFE740F28C00C2F232
:1035500000000068C0680068019001984FF0FF31DA
:10356000FFF756FEE9E740F28C02C2F20002106853
:10357000009040F29801C2F20001086810600098C3
:10358000086002B080BD000083B00020009040F2CF
:103590000C00C2F200000068013058B1FFE74FF0A4
:1035A000A00080F31188BFF36F8FBFF34F8F02909D
:1035B000FFE7FEE74FF0A00080F31188BFF36F8FA5
:1035C000BFF34F8F0190FFE7009808B9FFE7FBE7D3
:1035D00003B0704784B002900020019002980090E0
:1035E000029858B9FFE74FF0A00080F31188BFF3AD
:1035F0006F8FBFF34F8F0390FFE7FEE7009840699E
:1036000042F22021C2F20001884214D1FFE7009863
:10361000806A42F2F011C2F20001884209D0FFE74D
:103620000098806A18B9FFE70120019000E0FFE7E9
:1036300000E0FFE700E0FFE7019804B070470000FA
:1036400080B584B00390FFE701A8FFF777FB0290F5
:1036500002980199FFF7C6FEFFF704FEF4E70000A9
:1036600080B582B0019000F047FA019890F84500CB
:103670008DF80300FFE79DF90300012825DBFFE734
:103680000198806C50B1FFE70198FFF737FD18B142
:10369000FFE700F025FC00E0FFE710E00198406A3A
:1036A00058B1FFE70198243002F056F818B1FFE74F
:1036B00000F016FC00E0FFE700E006E0FFE79DF801
:1036C000030001388DF80300D5E70199FF2081F848
:1036D000450000F03DFA00F00FFA019890F8440020
:1036E0008DF80200FFE79DF90200012816DBFFE7D5
:1036F0000198006980B1FFE70198103002F02CF8C2
:1037000018B1FFE700F0ECFB00E0FFE79DF80200D6
:1037100001388DF8020000E000E0E4E70199FF20A5
:1037200081F8440000F014FA02B080BD80B582B088
:103730000190002000909DF80400400788B1FFE749
:10374000019921F007000830884206D9FFE7019867
:1037500020F007000830019002E000200190FFE710
:10376000FFE700F0E9FE40F28400C2F200000068CA
:1037700068B9FFE740F26410C2F20000073020F0A1
:10378000070040F28401C2F200010860FFE70198DF
:1037900038B3FFE742F2E010C2F20000006801997E
:1037A000084441F6F77188421BD8FFE742F2E01067
:1037B000C2F20000016801980844884211D9FFE76D
:1037C00040F28400C2F20000006842F2E011C2F24E
:1037D00000010A6810440090019A086810440860CB
:1037E000FFE702F083F8009802B080BD40F2880045
:1037F000C2F20000006848B1FFE740F28800C2F260
:1038000000000168C86C0130C864FFE740F288001E
:10381000C2F200000068704783B0029001910092EC
:1038200002980438029002994FF080700860029864
:1038300004380290019820F0010002990860029873
:1038400004380290029943F28950C0F200000860E7
:10385000029814380290009802990860029804387F
:10386000029002996FF002000860029820380290DE
:10387000029803B07047000080B588B00020039024
:1038800007900690059002200490042102910122E5
:10389000FDF7C0FD0A20FEF723FE0299039A049863
:1038A000FDF7B8FD04980521FDF742FD0590FFE7FF
:1038B000059830B9FFE702200521FDF739FD059095
:1038C000F6E74FF6FF70FEF7A9FEFEF76FFE022047
:1038D0000521FDF72DFD0590FFE70598012806D18C
:1038E000FFE702200521FDF723FD0590F5E7FEF730
:1038F00065FE079007994FF6FF70401A0790FEF794
:103900004DFE079802F099FB41EC100B9FED1C1B3C
:1039100053EC112B51EC100B02F0A2FB41EC100BFD
:1039200051EC100B9FED180B53EC102B02F098FB91
:1039300041EC100B8DED000B40F20800C2F20000CC
:10394000006802F07AFB41EC100B53EC102B104690
:10395000194602F013F99DED001B41EC100B51ECE0
:10396000110B53EC102B02F0B1F941EC100B51ECA0
:10397000100B02F035FB0690069808B080BD00BF22
:1039800000000000004075400000000000005940A9
:1039900080B5FDF74DFA0120FEF71AFE4FF6FF70D5
:1039A000FEF73CFE80BD000082B0019001980069E6
:1039B000009001984168806888600199486889682A
:1039C0004860009840680199884205D1FFE7019856
:1039D00080680099486000E0FFE7019900200861D5
:1039E00000990868013808600098006802B07047C4
:1039F00042F27410C2F200000068704781B000907B
:103A0000009901F10800486000994FF0FF3088608C
:103A1000009901F10800C860009901F108000861EF
:103A200000990020086001B07047000081B000904C
:103A300000990020086101B07047000084B0039035
:103A400002910298006800900098013020B9FFE7C9
:103A500003980069019010E0039808300190FFE797
:103A60000198406800680099884205D8FFE7FFE7A1
:103A7000019840680190F3E7FFE7019840680299D8
:103A800048600298416888600198029988600298AD
:103A90000199486003980299086103990868013008
:103AA000086004B07047000083B002900191029852
:103AB00040680090009801994860009880680199DA
:103AC0008860019800998968486001980099886029
:103AD000029801990861029908680130086003B0F2
:103AE00070470000DFF80C00016841F470010160CC
:103AF0007047000088ED00E082B04FF0A00080F336
:103B00001188BFF36F8FBFF34F8F019040F20C000D
:103B1000C2F200000168013101600068012814D17F
:103B2000FFE74EF60450CEF200000068000658B1E0
:103B3000FFE74FF0A00080F31188BFF36F8FBFF352
:103B40004F8F0090FFE7FEE7FFE702B070470000ED
:103B500082B040F20C00C2F20000006858B9FFE7E2
:103B60004FF0A00080F31188BFF36F8FBFF34F8F2A
:103B70000090FFE7FEE740F20C00C2F2000001688F
:103B800001390160006830B9FFE700200190019819
:103B900080F31188FFE702B07047000082B0009008
:103BA000009858B1FFE74FF0A00080F31188BFF3F1
:103BB0006F8FBFF34F8F0190FFE7FEE702B07047B2
:103BC00040F20800C2F20000016844F6D352C1F28C
:103BD0006202A1FB02318B0942F27011C2F20001B4
:103BE0000B600B686FF07F41B1FBF3F142F2DC1325
:103BF000C2F20003196042F26C13C2F200035E21AC
:103C000019604EF21001CEF2000100230B604EF25B
:103C1000180CCEF2000CCCF800300068A0FB0202B9
:103C20004FF0FF3000EB92104EF21402CEF2000281
:103C3000106007200860704780B588B0079007982B
:103C400042F2DC11C2F200010968884207D9FFE79D
:103C500042F2DC10C2F2000000680790FFE772B683
:103C6000BFF34F8FBFF36F8FFEF758FC10B9FFE71C
:103C700062B6EFE04EF21001CEF2000106200860BD
:103C80004EF21800CEF2000000680390039838B995
:103C9000FFE742F27010C2F2000000680390FFE7F5
:103CA000039A42F27010C2F20000006807990139CD
:103CB00000FB012006904EF60450CEF20000006892
:103CC0004001002810D5FFE74EF60451CEF2000166
:103CD0004FF00070086042F27010C2F200000168FC
:103CE0000698401A0690FFE7069842F26C11C2F25D
:103CF00000010968884209D9FFE742F26C10C2F25C
:103D0000000001680698401A0690FFE706984EF2F8
:103D10001401CEF2000108604EF21801CEF200014B
:103D2000002008604EF21001CEF20001086840F059
:103D30000100086007980290029830B1FFE7BFF3D6
:103D40004F8F30BFBFF36F8FFFE762B6BFF34F8F68
:103D5000BFF36F8F72B6BFF34F8FBFF36F8F4EF20B
:103D60001000CEF20000062101600068C0030028A8
:103D700033D5FFE742F27010C2F200000068069AE5
:103D80004EF21801CEF200010968891A0844013880
:103D90000190019842F26C11C2F200010968884258
:103DA00009D9FFE7019842F27011C2F200010968D7
:103DB000884208D9FFE742F27010C2F200000068A2
:103DC00001380190FFE701984EF21401CEF2000194
:103DD000086007980138059020E04EF21800CEF2F6
:103DE000000000680390079842F27011C2F20001CF
:103DF0000A685043039A801A049004980A68B0FB3A
:103E0000F2F0059005980130096848430499401A7A
:103E10004EF21401CEF200010860FFE74EF21801E5
:103E2000CEF20001002008604EF21001CEF2000137
:103E30000720086042F27010C2F2000000680138EA
:103E40004EF21401CEF200010860059800F050FA1D
:103E500062B6FFE708B080BD80B584B003900291E0
:103E6000019203980090FFF747FE009890F94400F4
:103E7000013028B9FFE70099002081F84400FFE7EE
:103E8000009890F94500013028B9FFE7009900201B
:103E900081F84500FFE7FFF75BFE0098806B38B9BB
:103EA000FFE7009824300299019A00F043F800E0FF
:103EB000FFE70098FFF7D4FB04B080BD81B000900D
:103EC00042F2E810C2F2000000680099086042F275
:103ED0004820C2F2000000680099486001B07047B5
:103EE00042F25421C2F20001012008607047000034
:103EF00080B584B002900191029858B9FFE74FF065
:103F0000A00080F31188BFF36F8FBFF34F8F039032
:103F1000FFE7FEE7029840F28801C2F2000109685B
:103F20001831FFF78BFD01980121FEF781FC04B0E9
:103F300080BD000080B586B0049003910292049881
:103F400058B9FFE74FF0A00080F31188BFF36F8FDF
:103F5000BFF34F8F0590FFE7FEE70498406801909C
:103F6000019840F28801C2F200010A68D06101980C
:103F700080680A68106208681830019A9268506078
:103F800008681830019A906004980968886204995A
:103F9000086801300860029820B1FFE74FF0FF3059
:103FA0000390FFE703980299FEF742FC06B080BD3C
:103FB00080B58AB00790069107980590012002907D
:103FC0000798002800F0B280FFE70598C06C58B948
:103FD000FFE74FF0A00080F31188BFF36F8FBFF3AE
:103FE0004F8F0990FFE7FEE70598806C069988429D
:103FF00003D2FFE70698039003E00598806C0390D6
:10400000FFE70598C06A0399884200F08D80FFE7BA
:104010000598C06C012840F08580FFE7059840F2C4
:104020008801C2F20001096888420BD1FFE74FF016
:10403000A00080F31188BFF36F8FBFF34F8F0890FC
:10404000FFE7FEE70598C06A049003980599C862E7
:104050000598C07E0006002806D4FFE70398C0F14B
:104060000A000599886100E0FFE705984069049916
:1040700001EB810240F29C01C2F2000101EB8201DE
:1040800088424DD1FFE705980430FFF78DFC68B9F1
:10409000FFE70598C16A012000FA01F242F284119B
:1040A000C2F2000108689043086000E0FFE705984D
:1040B000C16A012000FA01F242F28411C2F2000149
:1040C0000868104308600598C06A00EB800040F261
:1040D0009C01C2F2000101EB800040680190019850
:1040E000059A906001988068059AD0600598043020
:1040F000019A9268506005980430019A9060059A80
:10410000D06A00EB800001EB800050610598C06A26
:1041100000EB800251F82200013041F8220000E05B
:10412000FFE700E0FFE700E0FFE700E0FFE70AB09D
:1041300080BD000080B584B0029002980190029882
:1041400058B9FFE74FF0A00080F31188BFF36F8FDD
:10415000BFF34F8F0390FFE7FEE7019840F288011D
:10416000C2F200010968884265D0FFE70198002883
:1041700061D0FFE7FFF7C0FC0198FFF72BFA00289A
:1041800055D0FFE701980430FFF70EFC0198C16A93
:10419000012000FA01F242F28411C2F20001086823
:1041A000104308600198C06A00EB800040F29C0157
:1041B000C2F2000101EB8000406800900098019A73
:1041C000906000988068019AD06001980430009A4D
:1041D0009268506001980430009A9060019AD06A09
:1041E00000EB800001EB800050610198C06A00EB99
:1041F000800251F82200013041F822000198C06A83
:1042000040F28801C2F200010968C96A88420CD3F1
:10421000FFE74EF60451CEF200014FF080500860E7
:10422000BFF34F8FBFF36F8F00E0FFE700E0FFE7C2
:10423000FFF78EFC00E0FFE704B080BD80B586B0DC
:1042400042F2D811C2F200016846416000230360C7
:1042500042F67D50C0F2000046F24D61C0F200010E
:10426000802200F0FDFE03900398012804D1FFE7AF
:1042700001F04EFC039000E0FFE7039801281FD1F6
:10428000FFE74FF0A00080F31188BFF36F8FBFF3FB
:104290004F8F059042F2E411C2F200014FF0FF305F
:1042A000086042F21821C2F200010120086042F2C7
:1042B0004821C2F200010020086000F0A5F90FE0DB
:1042C0000398013058B9FFE74FF0A00080F3118840
:1042D000BFF36F8FBFF34F8F0490FFE7FEE7FFE759
:1042E00046F25C60C0F20000006806B080BD0000CD
:1042F00080B584B0009042F24820C2F2000000680D
:104300000099084442F2E411C2F2000109688842AF
:104310000BD9FFE74FF0A00080F31188BFF36F8F38
:10432000BFF34F8F0390FFE7FEE742F24820C2F24F
:10433000000000680099084442F2E411C2F2000152
:10434000096888422FD1FFE742F27C10C2F20000D8
:10435000006858B9FFE74FF0A00080F31188BFF361
:104360006F8FBFF34F8F0290FFE7FEE7009858B9B9
:10437000FFE74FF0A00080F31188BFF36F8FBFF30A
:104380004F8F0190FFE7FEE7FFF7B6FB42F2EC111B
:10439000C2F20001086801300860FFF7D9FB0098FD
:1043A0000138009000E0FFE7009A42F24821C2F293
:1043B000000108681044086004B080BD80B586B074
:1043C0000490FFF799FB049838B9FFE740F28800A2
:1043D000C2F200000068019002E004980190FFE73B
:1043E0000198039003980430FFF7DEFAD0B9FFE795
:1043F0000398C06A00EB800140F29C00C2F200000A
:1044000050F8210068B9FFE70398C16A012000FA5B
:1044100001F242F28411C2F2000108689043086080
:10442000FFE700E0FFE70398806A28B1FFE7039801
:104430001830FFF7B9FA00E0FFE70398011D42F2D8
:104440002020C2F20000FFF72FFB00200290FFE7C0
:104450000298002814DCFFE703980299084490F8BA
:104460005400012807D1FFE7039802990144002076
:1044700081F85400FFE7FFE7029801300290E7E778
:10448000FFF766FB42F21820C2F20000006838B164
:10449000FFE7FFF731FBFFF70DF8FFF759FB00E0EF
:1044A000FFE7039840F28801C2F2000109688842E0
:1044B0003ED1FFE742F21820C2F200000068F0B1DE
:1044C000FFE742F27C10C2F20000006858B1FFE73B
:1044D0004FF0A00080F31188BFF36F8FBFF34F8FB1
:1044E0000590FFE7FEE74EF60451CEF200014FF0D3
:1044F00080500860BFF34F8FBFF36F8F17E042F219
:104500002020C2F20000006842F27411C2F20001E1
:104510000968884207D1FFE740F28801C2F2000132
:104520000020086002E000F00FF8FFE7FFE700E07E
:10453000FFE706B080BD000042F27C11C2F200012C
:10454000086801300860704785B042F27C10C2F202
:104550000000006838B1FFE742F25421C2F20001C6
:10456000012008604DE042F25421C2F20001002017
:10457000086042F28410C2F20000006804900498BF
:10458000B0FA80F08DF80F009DF80F00C0F11F0009
:104590000190019800EB800140F29C00C2F2000003
:1045A00050F8210058B9FFE74FF0A00080F31188C0
:1045B000BFF36F8FBFF34F8F0290FFE7FEE70198C5
:1045C00000EB800140F29C00C2F2000000EB810091
:1045D0000090009948684068486000994868083130
:1045E000884205D1FFE70099486840684860FFE7C6
:1045F00000984068C06840F28801C2F2000108607B
:10460000FFE705B07047000080B588B04EF6005057
:10461000CEF2000000684CF27121C4F20F11884202
:104620000BD1FFE74FF0A00080F31188BFF36F8F2D
:10463000BFF34F8F0790FFE7FEE74EF60050CEF234
:10464000000000684CF27021C4F20F1188420BD1B7
:10465000FFE74FF0A00080F31188BFF36F8FBFF327
:104660004F8F0690FFE7FEE74EF20040CEF20000CB
:10467000039001780491FF21017000788DF80B0000
:104680009DF80B0000F0A00042F26411C2F200019C
:10469000087042F26811C2F2000107200860FFE7CB
:1046A0009DF80B00000600280DD5FFE742F26811C7
:1046B000C2F200010868013808609DF80B00400054
:1046C0008DF80B00ECE742F26810C2F200000068BF
:1046D00004280BD0FFE74FF0A00080F31188BFF350
:1046E0006F8FBFF34F8F0590FFE7FEE742F268112F
:1046F000C2F20001086800020860086800F4E06087
:10470000086004984EF20041CEF2000108704EF6A7
:104710002051CEF20001086840F46000086008688B
:1047200040F060400860FFF74BFA40F20C01C2F223
:104730000001002001900860FFF7D4F94EF63471B3
:10474000CEF20001086840F040400860FEF74CFDE2
:10475000FFF7FAFEFEF718FF019808B080BD0000D1
:1047600080B588B0069005918DF813200020039045
:10477000069880B3FFE706994FF0FF30B0FBF1F0E9
:104780000599884227D3FFE706980599484310F119
:10479000550F20D8FFE706980599484302900298E4
:1047A0005430FEF7C3FF0390039890B1FFE70398DE
:1047B000019001985430019006980599019A9DF84E
:1047C0001330DDF80CC0EE46CEF800C0FEF724FB37
:1047D00000E0FFE70EE0039858B9FFE74FF0A000B4
:1047E00080F31188BFF36F8FBFF34F8F0790FFE700
:1047F000FEE7FFE7039808B080BD000080B586B0F3
:10480000039002910120019003980090009858B9FC
:10481000FFE74FF0A00080F31188BFF36F8FBFF365
:104820004F8F0590FFE7FEE70098002856D0FFE77E
:104830000098C06B002851D0FFE70098C26B016C54
:104840004FF0FF30B0FBF2F0884247D3FFE7FFF7AD
:1048500053F900990B68C86B0A6C00FB0230886042
:1048600000990020886300990868486000990B68E7
:10487000C86B0A6C013800FB0230C8600099FF2049
:1048800081F84400009981F845000298D0B9FFE70B
:1048900000980069A0B1FFE70098103000F05CFFBD
:1048A00060B1FFE74EF60451CEF200014FF08050A8
:1048B0000860BFF34F8FBFF36F8F00E0FFE700E0AA
:1048C000FFE708E000981030FFF798F800982430D0
:1048D000FFF794F8FFE7FFF73BF902E000200190B3
:1048E000FFE7019858B9FFE74FF0A00080F3118867
:1048F000BFF36F8FBFF34F8F0490FFE7FEE7019880
:1049000006B080BD80B592B00C900B910A920993CD
:10491000002008900C980490049858B9FFE74FF0D5
:10492000A00080F31188BFF36F8FBFF34F8F1190FA
:10493000FFE7FEE70B990020029039B9FFE70498E2
:10494000006C002818BF01200290FFE70298C00702
:1049500058B1FFE74FF0A00080F31188BFF36F8FCD
:10496000BFF34F8F1090FFE7FEE70999002002295F
:10497000019007D1FFE70498C06B013818BF0120F0
:104980000190FFE70198C00758B1FFE74FF0A00082
:1049900080F31188BFF36F8FBFF34F8F0F90FFE746
:1049A000FEE700F039FC01460020009031B9FFE736
:1049B0000A98002818BF01200090FFE70098C00760
:1049C00058B1FFE74FF0A00080F31188BFF36F8F5D
:1049D000BFF34F8F0E90FFE7FEE7FFE7FFF78CF87E
:1049E0000498806B0499C96B884204D3FFE7099847
:1049F000022858D1FFE70498806B039004980B9924
:104A0000099AFEF7D7F807900498806CE0B1FFE7A9
:104A10000998022804D1FFE7039808B1FFE712E0E4
:104A20000498FEF76BFB60B1FFE74EF60451CEF23F
:104A300000014FF080500860BFF34F8FBFF36F8FBE
:104A400000E0FFE7FFE729E00498406AA0B1FFE734
:104A50000498243000F080FE60B1FFE74EF6045168
:104A6000CEF200014FF080500860BFF34F8FBFF3CC
:104A70006F8F00E0FFE710E0079860B1FFE74EF6A8
:104A80000451CEF200014FF080500860BFF34F8F09
:104A9000BFF36F8F00E0FFE7FFE7FFE7FFF758F88E
:104AA00001200D9065E00A9828B9FFE7FFF750F85C
:104AB00000200D905DE0089830B9FFE705A8FFF7EA
:104AC000FDF90120089000E0FFE7FFE7FFE7FFF7AF
:104AD0003FF8FFF731FDFFF70FF8049890F9440015
:104AE000013028B9FFE70499002081F84400FFE76E
:104AF000049890F94500013028B9FFE70499002097
:104B000081F84500FFE7FFF723F805A80AA900F0A0
:104B100029FA28BBFFE70498FEF7D8FAC8B1FFE7E7
:104B2000049810300A99FFF7E3F90498FEF798FD0E
:104B300000F0DCFE60B9FFE74EF60451CEF2000152
:104B40004FF080500860BFF34F8FBFF36F8FFFE7C8
:104B500005E00498FEF784FD00F0C8FEFFE707E0DB
:104B60000498FEF77DFD00F0C1FE00200D9000E0EE
:104B700034E70D9812B080BD80B58EB009900891D1
:104B800007920020069009980390039858B9FFE710
:104B90004FF0A00080F31188BFF36F8FBFF34F8FEA
:104BA0000D90FFE7FEE708990020019039B9FFE773
:104BB0000398006C002818BF01200190FFE70198BE
:104BC000C00758B1FFE74FF0A00080F31188BFF392
:104BD0006F8FBFF34F8F0C90FFE7FEE700F01CFBD9
:104BE00001460020009031B9FFE70798002818BF60
:104BF00001200090FFE70098C00758B1FFE74FF091
:104C0000A00080F31188BFF36F8FBFF34F8F0B901D
:104C1000FFE7FEE7FFE7FEF76FFF0398806B029068
:104C2000029830B3FFE703980899FDF7A1FF0298B7
:104C300001380399886303980069A0B1FFE70398DE
:104C4000103000F089FD60B1FFE74EF60451CEF25E
:104C500000014FF080500860BFF34F8FBFF36F8F9C
:104C600000E0FFE700E0FFE7FEF772FF01200A9097
:104C70006DE0079828B9FFE7FEF76AFF00200A9069
:104C800065E0069830B9FFE704A8FFF717F901209F
:104C9000069000E0FFE7FFE7FFE7FEF759FFFFF7A9
:104CA0004BFCFEF729FF039890F94400013028B926
:104CB000FFE70399002081F84400FFE7039890F98B
:104CC0004500013028B9FFE70399002081F845002D
:104CD000FFE7FEF73DFF04A807A900F043F930BB4A
:104CE000FFE70398FEF7DEF9D0B1FFE70398243021
:104CF0000799FFF7FDF80398FEF7B2FC00F0F6FD08
:104D000060B9FFE74EF60451CEF200014FF080503B
:104D10000860BFF34F8FBFF36F8F00E0FFE705E040
:104D20000398FEF79DFC00F0E1FDFFE70EE003981D
:104D3000FEF796FC00F0DAFD0398FEF7B3F918B120
:104D4000FFE700200A9002E0FFE7FFE763E70A9829
:104D50000EB080BD80B58EB00990089100200790FC
:104D6000099904910390049858B9FFE74FF0A00007
:104D700080F31188BFF36F8FBFF34F8F0D90FFE764
:104D8000FEE70498006C58B1FFE74FF0A00080F3F5
:104D90001188BFF36F8FBFF34F8F0C90FFE7FEE7D3
:104DA00000F03AFA01460020009031B9FFE7089878
:104DB000002818BF01200090FFE70098C00758B1F5
:104DC000FFE74FF0A00080F31188BFF36F8FBFF3B0
:104DD0004F8F0B90FFE7FEE7FFE7FEF78DFE04988D
:104DE000806B0290029860B3FFE702980138049943
:104DF00088630498006828B9FFE7FEF7F7FC049978
:104E0000886000E0FFE704980069A0B1FFE704981C
:104E1000103000F0A1FC60B1FFE74EF60451CEF275
:104E200000014FF080500860BFF34F8FBFF36F8FCA
:104E300000E0FFE700E0FFE7FEF78AFE01200A90AE
:104E40008DE0089828B9FFE7FEF782FE00200A905F
:104E500085E0079830B9FFE705A8FFF72FF8012094
:104E6000079000E0FFE7FFE7FFE7FEF771FEFFF7BF
:104E700063FBFEF741FE049890F94400013028B925
:104E8000FFE70499002081F84400FFE7049890F9B7
:104E90004500013028B9FFE70499002081F845005A
:104EA000FFE7FEF755FE05A808A900F05BF8A8BBD0
:104EB000FFE70498FEF7F6F848B3FFE704980068A8
:104EC00050B9FFE7FEF718FE0498806800F096FBE3
:104ED0000390FEF73DFE00E0FFE7049824300899B8
:104EE000FFF706F80498FEF7BBFB00F0FFFC60B983
:104EF000FFE74EF60451CEF200014FF080500860FB
:104F0000BFF34F8FBFF36F8F00E0FFE705E004981A
:104F1000FEF7A6FB00F0EAFCFFE71FE00498FEF7AF
:104F20009FFB00F0E3FC0498FEF7BCF8A0B1FFE79C
:104F3000039870B1FFE7FEF7DFFD0498FDF7ACFEC4
:104F40000190049880680199FFF732F8FEF700FE9F
:104F5000FFE700200A9002E0FFE7FFE73DE70A983D
:104F60000EB080BD80B588B005900491059858B901
:104F7000FFE74FF0A00080F31188BFF36F8FBFF3FE
:104F80004F8F0790FFE7FEE7049858B9FFE74FF00F
:104F9000A00080F31188BFF36F8FBFF34F8F06908F
:104FA000FFE7FEE7FEF7A8FD42F24820C2F200004C
:104FB00000680290029805994968401A019040F2F1
:104FC0008800C2F20000006890F8550058B1FFE771
:104FD00040F28800C2F200000168002081F855000C
:104FE0000120039037E004980068013018B9FFE70A
:104FF000002003902EE042F2E810C2F200000068A8
:105000000599096888420CD0FFE70298059949681C
:10501000884206D3FFE7012003900499002008602E
:1050200017E001980499096888420BD2FFE7019ABA
:1050300004990868801A08600598FEF73FFF002071
:10504000039005E004990020086001200390FFE729
:10505000FFE7FFE7FFE7FEF77BFD039808B080BDA1
:1050600070B58CB0DDF844C0DDF840C00B900A91FB
:10507000ADF826200893BDF826008000FEF756FB09
:1050800005900598A0B1FFE75820FEF74FFB079069
:10509000079840B1FFE707985821FBF70EFA0598EB
:1050A0000799086303E00598FEF778FDFFE702E043
:1050B00000200790FFE70798D8B1FFE70B980A99FF
:1050C000BDF82620089BDDF840C0119C079DEE46E8
:1050D0000026CEF80C60CEF80850CEF80440CEF88A
:1050E00000C0FDF7C1FE0798FDF734FC01200690D3
:1050F00003E04FF0FF300690FFE706980CB070BD5C
:1051000080B58AB00690059100200290069858B9A3
:10511000FFE74FF0A00080F31188BFF36F8FBFF35C
:105120004F8F0990FFE7FEE7059858B9FFE74FF06A
:10513000A00080F31188BFF36F8FBFF34F8F0890EB
:10514000FFE7FEE742F27C10C2F20000006858B1AF
:10515000FFE74FF0A00080F31188BFF36F8FBFF31C
:105160004F8F0790FFE7FEE7FFF7E6F942F248208E
:10517000C2F2000000680190069800680599084492
:105180000490019806990968884210D2FFE70498B4
:1051900006990968884208D2FFE704980199884275
:1051A00003D9FFE70120029000E0FFE70FE0049839
:1051B00006990968884205D3FFE704980199884257
:1051C00003D9FFE70120029000E0FFE7FFE7049822
:1051D00006990860029838B1FFE704980199401ACF
:1051E0000021FDF725FB00E0FFE700F07FFB0390C7
:1051F000039860B9FFE74EF60451CEF200014FF07C
:1052000080500860BFF34F8FBFF36F8F00E0FFE760
:1052100002980AB080BD000081B042F21820C2F2AC
:105220000000006818B9FFE7012000900DE042F28D
:105230007C10C2F20000006818B9FFE7022000905D
:1052400002E000200090FFE7FFE7009801B0704700
:1052500081B042F24820C2F200000068009000983D
:1052600001B0704780B58AB00020069042F27C10F1
:10527000C2F200000068002840F01981FFE742F206
:105280004821C2F2000108680130059005980860C5
:10529000059858BBFFE740F29000C2F2000000689A
:1052A000006858B1FFE74FF0A00080F31188BFF30A
:1052B0006F8FBFF34F8F0990FFE7FEE740F2900238
:1052C000C2F200021068049040F29401C2F20001A0
:1052D000086810600498086042F2E811C2F2000108
:1052E000086801300860FEF7E5F800E0FFE7059880
:1052F00042F2E411C2F2000109688842C0F0B680AF
:10530000FFE7FFE740F29000C2F20000006800688B
:1053100040B9FFE742F2E411C2F200014FF0FF3062
:105320000860A2E040F29000C2F200000068C0688D
:10533000C0680890089840680790059807998842C7
:1053400007D2FFE7079842F2E411C2F200010860B9
:105350008BE0FFE708984069039008988168C0686F
:10536000886008998868C968486003984068089907
:105370000431884205D1FFE70898C0680399486066
:10538000FFE7089900204861039908680138086020
:105390000898806AF8B1FFE70898806A0290089838
:1053A000C169006A88600899C869096A48600298FA
:1053B000406808991831884205D1FFE70898006ACB
:1053C00002994860FFE708990020886202990868FE
:1053D0000138086000E0FFE70898C16A012000FA80
:1053E00001F242F28411C2F2000108681043086021
:1053F0000898C06A00EB800040F29C01C2F20001F4
:1054000001EB8000406801900198089A9060019833
:105410008068089AD06008980430019A92685060B9
:1054200008980430019A9060089AD06A00EB8000D6
:1054300001EB800050610898C06A00EB800251F8CF
:105440002200013041F822000898C06A40F2880129
:10545000C2F200010968C96A884203D9FFE7012046
:10546000069000E0FFE7FFE74CE7FFE740F2880027
:10547000C2F200000068C06A00EB800140F29C00AC
:10548000C2F2000050F82100022803D3FFE70120F8
:10549000069000E0FFE742F25420C2F200000068EC
:1054A00018B1FFE70120069000E0FFE707E042F2B5
:1054B000EC11C2F20001086801300860FFE70698AD
:1054C0000AB080BD80B586B003900398029000209A
:1054D00001900398002800F08D80FFE7029840F2C9
:1054E0008801C2F20001096888420BD0FFE74FF043
:1054F000A00080F31188BFF36F8FBFF34F8F05902B
:10550000FFE7FEE70298C06C58B9FFE74FF0A00034
:1055100080F31188BFF36F8FBFF34F8F0490FFE7C5
:10552000FEE70299C86C0138C8640299C86A896CA0
:1055300088425DD0FFE70298C06C002856D1FFE793
:1055400002980430FEF730FA68B9FFE70298C16AA2
:10555000012000FA01F242F28411C2F2000108684F
:105560009043086000E0FFE70299886CC8620299E6
:10557000C86AC0F10A0088610298C16A012000FA75
:1055800001F342F28412C2F2000211681943116061
:105590000299C96A01EB810140F29C02C2F2000249
:1055A00002EB8101496800910099029B9960009982
:1055B0008968029BD96002990431009B9B685960FD
:1055C00002990431009B9960029BD96A01EB810129
:1055D00002EB810159610299C96A01EB810352F81A
:1055E0002310013142F82310019000E0FFE700E0B2
:1055F000FFE700E0FFE7019806B080BD80B584B00A
:10560000039003980290002001900398002800F076
:105610009F80FFE70298C06A40F28801C2F2000151
:105620000968C96A884280F08280FFE70298C07EDC
:10563000000600280BD4FFE740F28800C2F2000009
:105640000068C06AC0F10A000299886100E0FFE7C3
:1056500002994869C96A01EB810240F29C01C2F2D9
:10566000000101EB8201884255D1FFE70298043026
:10567000FEF79AF968B9FFE70298C16A012000FABB
:1056800001F242F28411C2F20001086890430860FE
:1056900000E0FFE740F28800C2F200000068C06A44
:1056A0000299C8620298C16A012000FA01F242F22E
:1056B0008411C2F200010868104308600298C06AB1
:1056C00000EB800040F29C01C2F2000101EB80007F
:1056D000406800900098029A906000988068029A52
:1056E000D06002980430009A9268506002980430AA
:1056F000009A9060029AD06A00EB800001EB800073
:1057000050610298C06A00EB800251F8220001301B
:1057100041F8220008E040F28800C2F20000006870
:10572000C06A0299C862FFE7012001900FE0029869
:10573000806C40F28801C2F200010968C96A88429F
:1057400003D2FFE70120019000E0FFE7FFE700E060
:10575000FFE7019804B080BD80B588B00690069838
:10576000C068C0680590059858B9FFE74FF0A000E1
:1057700080F31188BFF36F8FBFF34F8F0790FFE760
:10578000FEE70598806A03900598C169006A886001
:105790000599C869096A48600398406805991831F5
:1057A000884205D1FFE70598006A03994860FFE742
:1057B000059900208862039908680138086042F260
:1057C0007C10C2F200000068002859D1FFE705985C
:1057D0004069029005988168C0688860059988686A
:1057E000C96848600298406805990431884205D12B
:1057F000FFE70598C06802994860FFE70599002017
:10580000486102990868013808600598C16A01205A
:1058100000FA01F242F28411C2F20001086810435A
:1058200008600598C06A00EB800040F29C01C2F25B
:10583000000101EB8000406801900198059A90609A
:1058400001988068059AD06005980430019A9268A2
:10585000506005980430019A9060059AD06A00EB78
:10586000800001EB800050610598C06A00EB800267
:1058700051F82200013041F82200FDF71BFE1BE029
:1058800042F2F011C2F20001486800900098059AB7
:10589000D06100988068059A106205981830009AC7
:1058A0009268506005981830009A9060059881625F
:1058B000086801300860FFE70598C06A40F2880177
:1058C000C2F200010968C96A884208D9FFE70120CD
:1058D000049042F25421C2F20001086002E000206C
:1058E0000490FFE7049808B080BD000080B588B040
:1058F00000200690059042F27C10C2F20000006881
:1059000058B9FFE74FF0A00080F31188BFF36F8F05
:10591000BFF34F8F0790FFE7FEE7FEF7EDF842F287
:105920007C10C2F2000001680139016000680028A3
:1059300040F0E780FFE742F27410C2F20000006816
:10594000002800F0DD80FFE7FFE742F2F010C2F22E
:1059500000000068002800F09080FFE742F2F0109D
:10596000C2F20000C068C06806900698806A049081
:105970000698C169006A88600699C869096A486022
:105980000498406806991831884205D1FFE70698C7
:10599000006A04994860FFE706990020886204992C
:1059A0000868013808600698406903900698816885
:1059B000C068886006998868C9684860039840682C
:1059C00006990431884205D1FFE70698C06803991B
:1059D0004860FFE70699002048610399086801388C
:1059E00008600698C16A012000FA01F242F28411AF
:1059F000C2F200010868104308600698C06A00EB14
:105A0000800040F29C01C2F2000101EB800040687E
:105A100002900298069A906002988068069AD06078
:105A200006980430029A9268506006980430029AF0
:105A30009060069AD06A00EB800001EB8000506114
:105A40000698C06A00EB800251F82200013041F84C
:105A500022000698C06A40F28801C2F2000109687B
:105A6000C96A884207D3FFE742F25421C2F200011B
:105A70000120086000E0FFE767E7069818B1FFE73C
:105A8000FDF718FDFFE742F2EC10C2F200000068DB
:105A900001900198E0B1FFE7FFE7FFF7E3FB38B1C2
:105AA000FFE742F25421C2F200010120086000E049
:105AB000FFE7019801380190FFE701980028ECD139
:105AC000FFE742F2EC11C2F200010020086000E0A2
:105AD000FFE742F25420C2F20000006870B1FFE715
